:020000040800F2
:100000000080012015320008092900080F29000886
:10001000152900081B2900082129000800000000FC
:100020000000000000000000000000002729000878
:100030003529000800000000432900085129000864
:100040006532000865320008653200086532000834
:100050006532000865320008653200086532000824
:100060006532000865320008653200086532000814
:100070006532000865320008653200086532000804
:100080006532000865320008653200080000000093
:100090000000000000000000000000005D290008D2
:1000A00065320008653200086532000865320008D4
:1000B00095290008A3290008653200086532000868
:1000C00065320008653200086532000865320008B4
:1000D0006532000865320008653200080000000043
:1000E000B1290008653200086532000800000000F0
:1000F0000000000000000000000000006532000861
:100100000000000065320008653200086532000812
:1001100000000000000000000000000000000000DF
:100120006532000865320008653200086532000853
:100130006532000800000000000000000000000020
:10014000000000000000000000000000ED29000891
:10015000653200086532000865320008012A00088F
:100160006532000865320008000000000000000051
:10017000000000000000000000000000000000007F
:1001800000000000653200080000000000000000D0
:0401900065320008CC
:1001940010B5054C237833B9044B13B10448AFF3BD
:1001A40000800123237010BD000100200000000026
:1001B40050B2000808B5034B1BB103490348AFF321
:1001C400008008BD000000000401002050B20008B7
:1001D40053B94AB9002908BF00281CBF4FF0FF31AA
:1001E4004FF0FF3000F074B9ADF1080C6DE904CEA6
:1001F40000F006F8DDF804E0DDE9022304B07047FE
:100204002DE9F047089D04468E46002B4DD18A42C5
:10021400944669D9B2FA82F252B101FA02F3C2F1F8
:10022400200120FA01F10CFA02FC41EA030E944089
:100234004FEA1C48210CBEFBF8F61FFA8CF708FBAA
:1002440016E341EA034306FB07F199420AD91CEB82
:10025400030306F1FF3080F01F81994240F21C81B4
:10026400023E63445B1AA4B2B3FBF8F008FB1033FC
:1002740044EA034400FB07F7A7420AD91CEB040431
:1002840000F1FF3380F00A81A74240F20781644401
:10029400023840EA0640E41B00261DB1D440002386
:1002A400C5E900433146BDE8F0878B4209D9002DEA
:1002B40000F0EF800026C5E9000130463146BDE874
:1002C400F087B3FA83F6002E4AD18B4202D38242DE
:1002D40000F2F980841A61EB030301209E46002D8D
:1002E400E0D0C5E9004EDDE702B9FFDEB2FA82F2E2
:1002F400002A40F09280A1EB0C014FEA1C471FFA40
:100304008CFE0126200CB1FBF7F307FB131140EA26
:1003140001410EFB03F0884208D91CEB010103F1F3
:10032400FF3802D2884200F2CB804346091AA4B2B5
:10033400B1FBF7F007FB101144EA01440EFB00FE89
:10034400A64508D91CEB040400F1FF3102D2A645EE
:1003540000F2BB800846A4EB0E0440EA03409CE78D
:10036400C6F12007B34022FA07FC4CEA030C20FA3A
:1003740007F401FA06F31C43F9404FEA1C4900FA5A
:1003840006F3B1FBF9F8200C1FFA8CFE09FB1811D7
:1003940040EA014108FB0EF0884202FA06F20BD94A
:1003A4001CEB010108F1FF3A80F08880884240F29A
:1003B4008580A8F102086144091AA4B2B1FBF9F0DE
:1003C40009FB101144EA014100FB0EFE8E4508D9D9
:1003D4001CEB010100F1FF346CD28E456AD902385E
:1003E400614440EA0840A0FB0294A1EB0E01A14243
:1003F400C846A64656D353D05DB1B3EB080261EBB1
:100404000E0101FA07F722FA06F3F1401F43C5E98A
:10041400007100263146BDE8F087C2F12003D840C0
:100424000CFA02FC21FA03F3914001434FEA1C4702
:100434001FFA8CFEB3FBF7F007FB10360B0C43EAF4
:10044400064300FB0EF69E4204FA02F408D91CEBA4
:10045400030300F1FF382FD29E422DD902386344A2
:100464009B1B89B2B3FBF7F607FB163341EA034142
:1004740006FB0EF38B4208D91CEB010106F1FF3891
:1004840016D28B4214D9023E6144C91A46EA004688
:1004940038E72E46284605E70646E3E61846F8E61A
:1004A4004B45A9D2B9EB020864EB0C0E0138A3E763
:1004B4004646EAE7204694E74046D1E7D0467BE744
:1004C400023B614432E7304609E76444023842E7BC
:1004D400704700BF80B584B000AF3B4600221A606D
:1004E4005A609A60DA608C4B8C4A1A608A4B4FF4DB
:1004F40080325A60884B00229A60874B01221A612D
:10050400854B00221A76844B012283F82020824BEB
:1005140001225A62804B0022DA627F4B804A9A623F
:100524007D4B0022DA607C4B1022DA617A4B002288
:1005340083F83020784B01225A61774802F028FF73
:100544000346002B01D002F0E7F808233B600123A7
:100554007B600123BB603B4619466F4803F0DCF81F
:100564000346002B01D002F0D7F809233B60022395
:100574007B603B461946684803F0CEF80346002BDF
:1005840001D002F0C9F80E233B6003237B603B4695
:100594001946614803F0C0F80346002B01D002F06D
:1005A400BBF80F233B6004237B603B4619465A4843
:1005B40003F0B2F80346002B01D002F0ADF8062395
:1005C4003B6005237B603B461946534803F0A4F87F
:1005D4000346002B01D002F09FF807233B6006235B
:1005E4007B603B4619464C4803F096F80346002BC3
:1005F40001D002F091F804233B6007237B603B4663
:100604001946454803F088F80346002B01D002F050
:1006140083F805233B6008237B603B4619463E482C
:1006240003F07AF80346002B01D002F075F8032397
:100634003B6009237B603B461946374803F06CF85E
:100644000346002B01D002F067F802233B600A2323
:100654007B603B461946304803F05EF80346002BA6
:1006640001D002F059F801233B600B237B603B4629
:100674001946294803F050F80346002B01D002F034
:100684004BF800233B600C237B603B461946224811
:1006940003F042F80346002B01D002F03DF80D238D
:1006A4003B600D237B603B4619461B4803F034F83E
:1006B4000346002B01D002F02FF80C233B600E23DD
:1006C4007B603B461946144803F026F80346002B8A
:1006D40001D002F021F80B233B600F237B603B46E3
:1006E40019460D4803F018F80346002B01D002F018
:1006F40013F80A233B6010237B603B4619460648E7
:1007040003F00AF80346002B01D002F005F800BFFD
:100714001037BD4680BD00BF1C01002000200140F1
:100724000100000F80B58CB000AF786007F11C03A6
:1007340000221A605A609A60DA601A617B681B684A
:10074400314A93425BD10023BB61304B5B6C2F4A2F
:1007540043F4807353642D4B5B6C03F48073BB616F
:10076400BB6900237B61294B1B6B284A43F00403BC
:100774001363264B1B6B03F004037B617B6900232B
:100784003B61224B1B6B214A43F0010313631F4B54
:100794001B6B03F001033B613B690023FB601B4BB4
:1007A4001B6B1A4A43F002031363184B1B6B03F0D1
:1007B4000203FB60FB683F23FB6103233B620023CE
:1007C4007B6207F11C031946114803F017FEFF234F
:1007D400FB6103233B6200237B6207F11C03194680
:1007E4000C4803F00BFE0323FB6103233B6200234D
:1007F4007B6207F11C031946074803F0FFFD00BFA5
:100804003037BD4680BD00BF0020014000380240A3
:1008140000080240000002400004024080B483B09B
:1008240000AF786039607B683A685A6300BF0C3760
:10083400BD465DF8047B704780B483B000AF786038
:1008440039607B683A689A6300BF0C37BD465DF82F
:10085400047B704780B483B000AF78607B681B680A
:1008640003F04003402B0CBF01230023DBB21846E6
:100874000C37BD465DF8047B704780B483B000AF8D
:1008840078607B681B6803F08003802B0CBF012316
:100894000023DBB218460C37BD465DF8047B704775
:1008A40080B483B000AF78607B686FF040021A6058
:1008B40000BF0C37BD465DF8047B704780B483B03D
:1008C40000AF78600B46FB70FA787B685A6000BF13
:1008D4000C37BD465DF8047B704780B483B000AF2D
:1008E400786039607B683A689A6100BF0C37BD460E
:1008F4005DF8047B704780B483B000AF78603960E2
:100904003B681A047B689A6100BF0C37BD465DF8EA
:10091400047B704780B586B000AFF860B9607A6038
:100924004FF480711748FFF7D8FF00237B6111E073
:1009340000BFF868FFF7A1FF0346002BF9D07B69DD
:10094400BA6813441B781946F868FFF7B7FF7B6948
:1009540001337B617A697B689A42E9DB00BFF868FE
:10096400FFF778FF0346002BF9D0F868FFF798FFEC
:100974004FF480710348FFF7BEFF00BF1837BD4630
:1009840080BD00BF0008024080B582B000AF0822DD
:10099400002127480AF02EFC264B1A78264B1A70A1
:1009A400012225492548FFF7B5FF022007F0CEFEB6
:1009B4000023FB710DE0FB795B001D4A1344FA79B7
:1009C40052001F490A44128892B21A80FB790133FB
:1009D400FB71FB79032BEED91A4B1B681A461A4B91
:1009E4001A600023BB710BE0BB79114A32F8132063
:1009F400BB791146154A42F82310BB790133BB7108
:100A0400BB79032BF0D904221049114803F0CFF924
:100A14000346104A13600C4B1A680E4B1B689A422B
:100A240001D1012300E0002318460837BD4680BDEC
:100A34008C02002000000020F80200200014014075
:100A4400E0060020E8060020740100205C0200207B
:100A5400640100207001002080B500AF64220021F1
:100A640004480AF0C7FB4022002103480AF0C2FBF5
:100A740000BF80BD94020020CC0D002080B500AFE3
:100A84004FF47A7200210B480AF0B4FB0A4B00229F
:100A94001A804FF47A72002108480AF0ABFB084B25
:100AA40000221A601022002106480AF0A3FB00BFAE
:100AB40080BD00BFE00600206C010020F802002089
:100AC400740100205C02002080B582B000AF4FF0BA
:100AD40000037B604FF000033B60424B1B78012B0B
:100AE40032D1414B1B88B3F5805F03D93E4B4FF4A1
:100AF40080521A803C4B1B883B2B02D83A4B002275
:100B04001A80394B1B8807EE903AF8EE677AC7EDE6
:100B1400017AD7ED017A9FED357A67EE877ADFEDBA
:100B2400346A87EEA67AB0EE470A0AF06BFBF0EE61
:100B3400407AFCEEE77A17EE903A9BB207EE903AD1
:100B4400F8EE677AC7ED017A2A4B1B78012B32D174
:100B5400254BDB88B3F5805F03D9234B4FF48052D8
:100B6400DA80214BDB883B2B02D81F4B0022DA8032
:100B74001D4BDB8807EE903AF8EE677AC7ED007AF2
:100B8400D7ED007A9FED197A67EE877ADFED186A60
:100B940087EEA67AB0EE470A0AF034FBF0EE407A0C
:100BA400FCEEE77A17EE903A9BB207EE903AF8EE35
:100BB400677AC7ED007AD7ED017AFCEEE77A17EE93
:100BC400901A4FF08040FFF729FED7ED007AFCEE33
:100BD400E77A17EE901A0848FFF720FE00BF08379F
:100BE400BD4680BD020000208C0200200000AF43FF
:100BF40000008045010000200004004080B500AFE3
:100C040000214FF08040FFF709FE00210248FFF762
:100C140013FE00BF80BD00BF0004004080B582B059
:100C240000AF2022002111480AF0E4FA0023FB71EE
:100C340012E00F4802F0F0FB64210D4802F0D3FCEF
:100C44000B4802F05BFD0246FB7911B2074A22F819
:100C54001310FB790133FB71FB790F2BE9D904489D
:100C640002F08EFC00BF0837BD4680BD6C02002038
:100C74001C01002080B483B000AF154B1B78002BFF
:100C84000DD10023FB7107E0FB79124A002122F801
:100C94001310FB790133FB71FB79072BF4D90E4B4D
:100CA4001B78002B0DD10823BB7107E0BB79094ADF
:100CB400002122F81310BB790133BB71BB790F2BD0
:100CC400F4D900BF0C37BD465DF8047B704700BF04
:100CD400010000206C0200200200002080B483B0D8
:100CE40000AF0023FB7150E0FB796D4A32F91330F9
:100CF4001946FB796B4A32F81330994208DAFB79CA
:100D0400684A32F81320FB7911B2654A22F81310AD
:100D1400FB79634A32F913301946FB79624A32F897
:100D24001330994208DDFB795F4A32F81320FB79CE
:100D340011B25B4A22F81310FB79594A32F9133085
:100D44009AB2FB79574931F81330D31A9AB2FB7926
:100D540011B2534A22F81310FB79072B12D0FB79F6
:100D64000F2B0FD0FB794E4A32F913309AB2FB792C
:100D74004E4931F81330D31A9AB2FB7911B2484A6A
:100D840022F81310FB790133FB71FB790F2BABD9DC
:100D9400474B1B78012B3CD1414BB3F90020404B0E
:100DA4001A803F4BB3F902203D4B5A803C4BB3F9B8
:100DB40004203B4B9A803A4BB3F90620384BDA8037
:100DC400374BB3F90820364B1A81354BB3F90A2057
:100DD400334B5A81324BB3F90C20314B9A81304B4F
:100DE400B3F90E301A4613461B029A1A2E4BDB89AE
:100DF40019462C4BDB89CB1A92FBF3F307EE903A9E
:100E0400F8EEE77AFDEEE77A17EE903A1AB2244B41
:100E1400DA81284B1B78012B3CD1214BB3F91020EC
:100E24001F4B1A821E4BB3F912201D4B5A821C4BC6
:100E3400B3F914201A4B9A82194BB3F91620184BA4
:100E4400DA82174BB3F91820154B1A83144BB3F9F4
:100E54001A20134B5A83124BB3F91C20104B9A835C
:100E64000F4BB3F91E301A4613461B029A1A0E4B47
:100E7400DB8B19460B4BDB8BCB1A92FBF3F307EEA0
:100E8400903AF8EEE77AFDEEE77A17EE903A1AB266
:100E9400034BDA8300BF0C37BD465DF8047B704713
:100EA4006C020020BC0100209C0100207C01002079
:100EB400010000200200002080B584B000AF03468A
:100EC4000A46FB711346BB711023FB73FFF7A6FEA2
:100ED40000F0E2F9FB79102B01D9012327E0BB795B
:100EE400002B10D1FB79144A32F91320FB791146F7
:100EF400124A42F82310FB7B104A1149062000F0E5
:100F04009EFA034613E0BB79012B10D1FB790A4A00
:100F140032F91320FB7911460A4A42F82310FB7B6D
:100F2400084A0949072000F08AFA0346FFE71846F1
:100F34001037BD4680BD00BF6C0200201C0200209B
:100F440000000408DC0100200000060880B584B01D
:100F540000AF03460A46FB711346BB710023FB60D6
:100F6400BB79002B2CD0BB79102B29D8BB79013B42
:100F7400BB71FB79302B07D1BB7900211846FFF7F1
:100F84009BFF0346FB6009E0FB79312B06D1BB795B
:100F940001211846FFF790FF0346FB60FB680A4AED
:100FA400136000BF0421084809F096FC0346012B96
:100FB400F8D0FFF763FDFFF74FFD00F0A7FA00E05C
:100FC40000BF1037BD4680BD9402002080B586B0B6
:100FD40000AF0346FB7100237B6100233B611023B8
:100FE400FB7300F059F9FB79002B27D0FB79102B08
:100FF40024D8FB79013BFB71FB79134A002142F8A9
:101004002310FB7B104A1149062000F018FA78617E
:10101400FB790F4A002142F82310FB7B0C4A0D494F
:10102400072000F00CFA38617B69002B02D13B6980
:10103400002B01D0012303E0002301E000BF00BF27
:1010440018461837BD4680BD1C0200200000040865
:10105400DC0100200000060880B582B000AF002348
:10106400BB7010237B707B781A468049804800F05F
:10107400C4F97B781A467F497F4800F0BEF9002303
:10108400FB7116E0FB79794A52F82330B3F5805F9F
:1010940002D97A4B00221A70FB79764A52F823302F
:1010A400B3F5805F02D9754B00221A70FB790133C6
:1010B400FB71FB79072BE5D90823BB7116E0BB79DB
:1010C4006A4A52F82330B3F5805F02D96C4B002290
:1010D4001A70BB79674A52F82330B3F5805F02D99E
:1010E400674B00221A70BB790133BB71BB790F2B9C
:1010F400E5D9624B1B78012B1AD100237B7114E0D4
:101104007B795C4A52F823207B7991B25D4A22F8BC
:1011140013107B79554A52F823207B7991B25A4AAD
:1011240022F813107B7901337B717B79072BE7D984
:10113400534B1B78012B1AD108233B7114E03B79E4
:101144004C4A52F823203B7991B24E4A22F81310AC
:101154003B79464A52F823203B7991B24A4A22F815
:1011640013103B7901333B713B790F2BE7D90023F3
:10117400FB706DE0FB78022B21D1FB78414A32F8F9
:1011840013301946FB78404A32F81330CB1A07EE75
:10119400903AF8EEE77A9FED3D7A67EE877AB0EE03
:1011A400670A0AF02FF8F0EE407AFB78FCEEE77A53
:1011B40017EE902A91B2364A22F8131045E0FB78D4
:1011C4000A2B21D1FB782F4A32F813301946FB78C9
:1011D4002D4A32F81330CB1A07EE903AF8EEE77A3C
:1011E4009FED2C7A67EE877AB0EE670A0AF00AF868
:1011F400F0EE407AFB78FCEEE77A17EE902A91B293
:10120400234A22F8131020E0FB781E4A32F81330E8
:101214001946FB781C4A32F81330CB1A07EE903A81
:10122400F8EEE77AF0EE006A87EEA67AB0EE470AA7
:1012340009F0E8FFF0EE407AFB78FCEEE77A17EE6F
:10124400902A91B2124A22F81310FB780133FB70F2
:10125400FB780F2B8ED9BB78002B01D1002300E043
:10126400012318460837BD4680BD00BF1C0200207C
:1012740000000408DC010020000006080100002032
:10128400020000209C010020BC010020D9891D3EE1
:101294007C0100208A9D583F80B582B000AF1023A6
:1012A400BB71BB791A461549154800F0A6F8BB79FD
:1012B4001A461449144800F0A0F80023FB7114E006
:1012C400FB790E4A52F82320FB7991B20F4A22F897
:1012D4001310FB790B4A52F82320FB7991B20C4A84
:1012E40022F81310FB790133FB71FA79BB799A4226
:1012F400E6D300BF00BF0837BD4680BD1C020020F6
:1013040000000408DC01002000000608BC010020E5
:101314009C01002080B500AF234B1B78002B0FD11C
:101324004FF480512148FFF7D8FA4FF400511F4879
:10133400FFF7E1FA4FF480411C48FFF7DCFA22E0A2
:10134400194B1B78012B0FD14FF480511748FFF72D
:10135400D2FA4FF400511548FFF7BFFA4FF4804119
:101364001248FFF7C8FA0EE04FF480510F48FFF718
:10137400C2FA4FF400510D48FFF7BDFA4FF4804113
:101384000A48FFF7AAFA0A4B1B78002B05D14FF441
:1013940000710648FFF7AFFA04E04FF40071034808
:1013A400FFF79BFA00BF80BD7901002000040240D2
:1013B4007801002080B588B000AF78600023BB605E
:1013C4000023FB600223FB617B687B610123BB611B
:1013D40002F074FD07F1080207F10C0311461846E8
:1013E40002F0EAFE0346002B01D002F089FD02F070
:1013F40087FD00BF2037BD4680BD80B487B000AFF5
:10140400F860B9601346FB710023FB750CE0FA68C1
:10141400FB7D9B00B9680B4412681A60FB680433B7
:10142400FB60FB7D0133FB75FA7DFB799A42EED3B9
:1014340000BF00BF1C37BD465DF8047B7047B0B5E4
:101444008EB000AFF860B9607A60FB700023BB62B5
:10145400FB68062B02D0FB68072B52D102F02EFD4D
:1014640000237B6102237B62FB68FB6101233B62F7
:1014740007F1280207F114031146184602F09CFEF6
:101484000346002B06D002F04BFDF86202F038FD53
:10149400FB6A37E000233B63002387F8373027E0FB
:1014A40097F837309B007A6813441B683B6397F8BE
:1014B40037309B007A6813441B6800221C4615468B
:1014C40022462B46B968022002F0A4FC0346002BF6
:1014D40006D002F025FDF86202F012FDFB6A11E06D
:1014E400BB680433BB6097F83730013387F8373073
:1014F40097F83720FB789A42D2D302F001FD0023FB
:1015040000E0012318463837BD46B0BD80B500AFB2
:101514004FF480710648FFF7E0F9232007F016F92D
:101524004FF480710248FFF7E6F900BF80BD00BFA9
:101534000000024080B582B000AF1023FB714FF46D
:1015440080715E48FFF7C9F9FB79184607F0FEF889
:101554004FF480715948FFF7CEF9FB79184607F02C
:10156400F5F84FF480715548FFF7B7F9FB79184641
:1015740007F0ECF84FF480715048FFF7BCF9FB79A1
:10158400184607F0E3F84FF480714C48FFF7A5F9CB
:10159400FB79184607F0DAF84FF480714748FFF7F3
:1015A400AAF9FB79184607F0D1F84FF48071434843
:1015B400FFF793F9FB79184607F0C8F84FF48071E8
:1015C4003E48FFF798F9FB79184607F0BFF84FF447
:1015D40080713A48FFF781F9FB79184607F0B6F8AD
:1015E4004FF480713548FFF786F9FB79184607F008
:1015F400ADF8462007F0AAF84FF480712F48FFF7A2
:101604006CF9FB79184607F0A1F84FF480712B4868
:10161400FFF771F9FB79184607F098F84FF48071D9
:101624002648FFF75AF9FB79184607F08FF84FF46C
:1016340080712248FFF75FF9FB79184607F086F8B6
:101644004FF480711D48FFF748F9FB79184607F0FD
:101654007DF84FF480711948FFF74DF9FB7918466E
:1016640007F074F84FF480711448FFF736F9FB79EA
:10167400184607F06BF84FF480711048FFF73BF9F8
:10168400FB79184607F062F84FF480710B48FFF7B6
:1016940024F9FB79184607F059F84FF4807107488C
:1016A400FFF729F9FB79184607F050F8C82007F02E
:1016B4004DF800BF0837BD4680BD00BF00000240A2
:1016C40080B500AF064B074A1A60054802F053FB89
:1016D4000346002B01D001F01FF800BF80BD00BFFE
:1016E400640100200030024080B485B000AF78600F
:1016F4007B681B680B4A93420DD10023FB600A4BA5
:101704001B6B094A43F480531363074B1B6B03F4AD
:101714008053FB60FB6800BF1437BD465DF8047B53
:10172400704700BF003002400038024080B400AF70
:10173400044BDB681B0A03F007031846BD465DF83B
:10174400047B704700ED00E080B483B000AF034633
:10175400FB7197F90730002B0BDBFB7903F01F02B9
:10176400074997F907305B09012000FA02F241F8B2
:10177400232000BF0C37BD465DF8047B704700BFD3
:1017840000E100E080B483B000AF03463960FB7130
:1017940097F90730002B0ADB3B68DAB20C4997F95A
:1017A40007301201D2B20B4483F800230AE03B68ED
:1017B400DAB20849FB7903F00F03043B1201D2B2F9
:1017C4000B441A7600BF0C37BD465DF8047B7047A6
:1017D40000E100E000ED00E080B489B000AFF86003
:1017E400B9607A60FB6803F00703FB61FB69C3F12E
:1017F4000703042B28BF0423BB61FB690433062BB6
:1018040002D9FB69033B00E000237B614FF0FF3208
:10181400BB6902FA03F3DA43BB681A407B699A4056
:101824004FF0FF317B6901FA03F3D9437B680B4026
:10183400134318462437BD465DF8047B7047000007
:1018440080B485B000AF7860084B1A6B07497B6899
:1018540013430B63054B1A6B7B681340FB60FB68F7
:1018640000BF1437BD465DF8047B70470038024062
:1018740080B485B000AF78603960134A3B68DBB24E
:10188400023352F823203B681B0CDB4302EA0301BA
:101894003B681B0CFB60FB6893FAA3F3BB60BB685B
:1018A400B3FA83F3DBB21A467B6803FA02F2064802
:1018B4003B68DBB20A43023340F8232000BF1437ED
:1018C400BD465DF8047B70470038014080B489B0A0
:1018D40000AFF860B9607A60FB681A68BB687B6126
:1018E4007B6993FAA3F33B613B69B3FA83F3DBB2FD
:1018F4005B00032101FA03F3DB431A40BB68FB617D
:10190400FB6993FAA3F3BB61BB69B3FA83F3DBB25C
:101914005B00796801FA03F31A43FB681A6000BF9D
:101924002437BD465DF8047B704780B489B000AFAE
:10193400F860B9607A60FB68DA68BB687B617B69D0
:1019440093FAA3F33B613B69B3FA83F3DBB25B0025
:10195400032101FA03F3DB431A40BB68FB61FB6913
:1019640093FAA3F3BB61BB69B3FA83F3DBB25B0005
:10197400796801FA03F31A43FB68DA6000BF24377D
:10198400BD465DF8047B704780B483B000AF7860D7
:1019940039603B681A047B689A6100BF0C37BD4606
:1019A4005DF8047B7047000080B588B000AF07F194
:1019B400180300221A605A603B4600221A605A60DB
:1019C4009A60DA601A615A618020FFF739FF0420B7
:1019D400FFF736FF0120FFF733FF0220FFF730FF48
:1019E40047F228215B48FFF7CFFF4FF450615A4874
:1019F400FFF7CAFF4FF480715848FFF7C5FF04236F
:101A04003B6000237B6000233B613B461946514801
:101A140004F020FB47F228233B6001237B60002372
:101A2400BB600023FB6002233B613B4619464948E7
:101A340004F010FB4FF480733B6001237B600323AD
:101A4400BB600023FB6002233B613B4619464248CE
:101A540004F000FB4FF480733B6001237B6001239F
:101A6400BB600023FB6002233B613B4619463B48B5
:101A740004F0F0FA4FF440633B6001237B600023E1
:101A8400BB600023FB6002233B613B46194632489E
:101A940004F0E0FA32490120FFF7EAFE314901205F
:101AA400FFF7E6FE4FF40043BB6101233B770023BD
:101AB4007B770123BB7707F11803184604F044F938
:101AC4004FF48073BB6101233B7700237B770123B1
:101AD400BB7707F11803184604F036F902224FF4D5
:101AE40000411C48FFF721FF02224FF4807119487E
:101AF400FFF71BFF00224FF400411648FFF7E6FEF4
:101B040000224FF480711348FFF7E0FEFFF70EFE4A
:101B14000346002200211846FFF75EFE03461946DD
:101B24001720FFF72FFE1720FFF70EFEFFF7FEFD2D
:101B34000346002200211846FFF74EFE03461946CD
:101B44002820FFF71FFE2820FFF7FEFD00BF2037E7
:101B5400BD4680BD0004024000080240000002406F
:101B6400030000F002000F0080B483B000AF03460E
:101B7400FB7197F90730002B0BDBFB7903F01F0295
:101B8400074997F907305B09012000FA02F241F88E
:101B9400232000BF0C37BD465DF8047B704700BFAF
:101BA40000E100E080B400AF054B1B68044A43F435
:101BB4008033136000BFBD465DF8047B704700BFEF
:101BC4000038024080B400AF074B1B6803F40033B5
:101BD400B3F5003F0CBF01230023DBB21846BD461A
:101BE4005DF8047B704700BF0038024080B483B0C6
:101BF40000AF7860064B9B6823F0030204497B68BE
:101C040013438B6000BF0C37BD465DF8047B7047FF
:101C14000038024080B400AF044B9B6803F00C030F
:101C24001846BD465DF8047B704700BF003802408B
:101C340080B483B000AF7860064B9B6823F0F00259
:101C440004497B6813438B6000BF0C37BD465DF8C5
:101C5400047B70470038024080B483B000AF7860E2
:101C6400064B9B6823F4E05204497B6813438B6062
:101C740000BF0C37BD465DF8047B70470038024056
:101C840080B483B000AF7860064B9B6823F4604255
:101C940004497B6813438B6000BF0C37BD465DF875
:101CA400047B70470038024080B483B000AF786092
:101CB400074BD3F88C3023F0807205497B681343BB
:101CC400C1F88C3000BF0C37BD465DF8047B70470B
:101CD4000038024080B400AF054B1B68044A43F04F
:101CE4008073136000BFBD465DF8047B704700BF7E
:101CF4000038024080B400AF074B1B6803F0007348
:101D0400B3F1007F0CBF01230023DBB21846BD46AC
:101D14005DF8047B704700BF0038024080B485B092
:101D240000AFF860B9607A603B600D4B5A680D4BA8
:101D34001340F968BA6811437A6892010A43084962
:101D440013434B60064B5B6823F4403204493B6801
:101D540013434B6000BF1437BD465DF8047B7047E6
:101D6400003802400080BFFF80B485B000AFF86047
:101D7400B9607A603B600A4B5A680A4B1340F968B1
:101D8400BA6811437A68920111433A680A430449D4
:101D940013434B6000BF1437BD465DF8047B7047A6
:101DA400003802400080BFF080B483B000AF786098
:101DB400064B1B6823F0070204497B6813430B603E
:101DC40000BF0C37BD465DF8047B7047003C024001
:101DD40080B400AF044B1B6803F007031846BD46EC
:101DE4005DF8047B704700BF003C024080B483B0C0
:101DF40000AF7860064B1B6823F4404204497B68BB
:101E040013430B6000BF0C37BD465DF8047B70477D
:101E14000070004080B483B000AF78607B681B68BA
:101E240043F001027B681A6000BF0C37BD465DF8C1
:101E3400047B704780B483B000AF786039607B68FE
:101E44001A6A3B681A437B681A6200BF0C37BD46A6
:101E54005DF8047B704780B483B000AF786039606C
:101E64007B683A685A6300BF0C37BD465DF8047B53
:101E7400704780B489B000AF78607B680C33FB6036
:101E8400FB6853E8003FBB60BB6843F02003FB6181
:101E94007B680C33FA69BA617B617969BA6941E894
:101EA40000233B613B69002BE7D100BF00BF24370F
:101EB400BD465DF8047B704780B489B000AF78609C
:101EC4007B681433FB60FB6853E8003FBB60BB686E
:101ED40043F00103FB617B681433FA69BA617B61E7
:101EE4007969BA6941E800233B613B69002BE7D17A
:101EF40000BF00BF2437BD465DF8047B704780B443
:101F040083B000AF786039607B683A689A6100BF3B
:101F14000C37BD465DF8047B704780B483B000AFD6
:101F2400786039603B681A047B689A6100BF0C379B
:101F3400BD465DF8047B704780B588B000AF01F002
:101F440091F900F095FBFFF72FFDFEF7C3FAFFF7B9
:101F5400B7FB00F01FFF00F09FFF01F0F9F808F055
:101F6400F3FB4FF4E773BB6101214FF08040FFF7AF
:101F740061FF4FF08040FFF74DFF4FF48061C04890
:101F8400FFF7BDFF4FF40061BD48FFF7C6FF002116
:101F94004FF08040FFF75FFF0121BA48FFF74AFF87
:101FA400B848FFF737FF0821B748FFF7A8FF2021FB
:101FB400B548FFF7B2FF0021B248FFF74CFF4720B6
:101FC400FFF7D2FDB14BDB68B04A43F00C03D3609A
:101FD400AE48FFF74EFFAD48FFF76EFF4FF4807138
:101FE400A748FFF79AFFFFF737F80346FB7500236E
:101FF4003B610023FB600023BB6000237B60002364
:10200400FB614FF48051A048FFF779FFFFF792FA84
:10201400012006F09BFB9E4B1B78633B152B00F2C3
:10202400008301A252F823F0852000082726000827
:10203400D12500082726000827260008272600089F
:102044002726000827260008272600082726000838
:102054002726000827260008272600082726000828
:1020640027260008A72400081B26000827260008A6
:10207400272600082726000827260008E725000849
:10208400834B5B786C2B03D0722B00F0078103E247
:102094007F4B9B78382B00F09F80382B00F3F9811D
:1020A400362B02D0372B48D0F3E1794BDB78313B28
:1020B400052B00F2E28001A252F823F0D920000897
:1020C400E7200008F520000803210008112100087A
:1020D4001F2100086E4B1B7901211846FEF736FFBD
:1020E4002AE06B4B1B7902211846FEF72FFF23E0F1
:1020F400674B1B7903211846FEF728FF1CE0644B4D
:102104001B7904211846FEF721FF15E0604B1B796B
:1021140005211846FEF71AFF0EE00720FEF756FFCA
:1021240078600820FEF752FF7860594B1B7906212E
:102134001846FEF70BFF00BF9FE0554BDB78313BA1
:10214400072B00F2A78001A252F823F071210008A6
:102154007F2100088D2100089B210008A921000887
:10216400B721000899220008C5210008484B1B79B3
:1021740001211846FEF7EAFE2DE0454B1B790221AA
:102184001846FEF7E3FE26E0414B1B79032118466F
:10219400FEF7DCFE1FE03E4B1B7904211846FEF7D8
:1021A400D5FE18E03A4B1B7905211846FEF7CEFE02
:1021B40011E0374B1B7906211846FEF7C7FE0AE0EB
:1021C4000720FEF703FFB860314B1B79082118463E
:1021D400FEF7BCFE00BF5DE02D4BDB78313B072BE7
:1021E4005AD801A252F823F00D2200081B2200083D
:1021F400292200083722000845220008532200083B
:10220400612200086F220008214B1B790121184626
:10221400FEF79CFE30E01E4B1B7902211846FEF7A8
:1022240095FE29E01A4B1B7903211846FEF78EFE12
:1022340022E0174B1B7904211846FEF787FE1BE0AA
:10224400134B1B7905211846FEF780FE14E0104B52
:102254001B7906211846FEF779FE0DE00C4B1B791D
:1022640007211846FEF772FE06E0094B1B79082188
:102274001846FEF76BFE00BF0EE000BF09E100BF89
:102284000008024000040040000402400014014021
:10229400CC0D002000BFFCE000BFFAE0B14B9B78FE
:1022A400382B00F09F80382B00F3F580362B02D0BA
:1022B400372B48D0EFE0AB4BDB78313B052B00F2FA
:1022C400E28001A252F823F0E5220008F32200087C
:1022D400012300080F2300081D2300082B230008F6
:1022E400A04B1B7909211846FEF730FE2AE09D4BCE
:1022F4001B790A211846FEF729FE23E0994B1B7926
:102304000B211846FEF722FE1CE0964B1B790C218C
:102314001846FEF71BFE15E0924B1B790D2118465B
:10232400FEF714FE0EE00F20FEF750FEB8601020FA
:10233400FEF74CFEB8608B4B1B790E211846FEF756
:1023440005FE00BF9FE0874BDB78313B072B00F293
:102354009C8001A252F823F07D2300088B230008FF
:1023640099230008A7230008B5230008C323000805
:102374008F240008D12300087A4B1B7909211846C1
:10238400FEF7E4FD2DE0774B1B790A211846FEF792
:10239400DDFD26E0734B1B790B211846FEF7D6FDB5
:1023A4001FE0704B1B790C211846FEF7CFFD18E097
:1023B4006C4B1B790D211846FEF7C8FD11E0694BE3
:1023C4001B790E211846FEF7C1FD0AE00F20FEF727
:1023D400FDFDB860634B1B7910211846FEF7B6FD6E
:1023E40000BF52E05F4BDB78313B072B4FD801A293
:1023F40052F823F019240008272400083524000883
:1024040043240008512400085F2400086D240008B8
:102414007B240008534B1B7909211846FEF796FDCF
:1024240030E0504B1B790A211846FEF78FFD29E056
:102434004C4B1B790B211846FEF788FD22E0494BD3
:102444001B790C211846FEF781FD1BE0454B1B79D7
:102454000D211846FEF77AFD14E0424B1B790E213C
:102464001846FEF773FD0DE03E4B1B790F2118460D
:10247400FEF76CFD06E03B4B1B7910211846FEF776
:1024840065FD00BF03E000BF05E000BF03E000BF3F
:1024940001E000BF00E000BFFEF7F0FAFEF7DCFA4F
:1024A400D2E0304B5B78312B02D0322B6CD088E0F9
:1024B400FEF76AFA0346012B25D10023FB61FEF7E0
:1024C40003FBFEF7ABFBFEF7D5FBFEF707FC202270
:1024D4002549264808F080FE254B08222549184640
:1024E40008F07AFE244B254A12781A70244B254AA8
:1024F40012781A7000BF2A211C4808F0EDF903462F
:10250400012BF8D05CE0012006F020F9FEF73CFA3C
:102514000346012B54D10023FB61FEF7D5FAFEF7E5
:102524007DFBFEF7A7FBFEF7D9FB20220E490F48DF
:1025340008F052FE0E4B08220E49184608F04CFED5
:102544000D4B0E4A12781A700D4B0E4A12781A70FF
:1025540000BF2A21054808F0BFF90346012BF8D033
:102564002EE000BFCC0D00206C020020940200205D
:10257400B40200208C020020BC020020780100205C
:10258400BD02002079010020FEF748FBFEF772FB34
:10259400FEF7A4FB20222D492D4808F01DFE2D4BEB
:1025A4002D4A12781A702D4B2D4A12781A7000BFDA
:1025B4002221274808F090F90346012BF8D000E0C7
:1025C40000BFFEF75BFAFEF747FA3DE00620FEF790
:1025D400F1FE0720FEF7EEFEFEF750FAFEF73CFA96
:1025E40032E0FEF759FE20221E49194808F0F4FD96
:1025F400184B20221C49184608F0EEFD00BF40216C
:10260400134808F069F90346012BF8D0FEF736FAAF
:10261400FEF722FA18E040220021144808F0EAFDEF
:1026240012E0FB690133FB61FB69B3F5FA6F04D374
:1026340040F6B833FB61FEF7E1FAFEF76BFEFEF7F6
:102644000BFAFEF71BFA00BFE2E400BF6C020020A5
:1026540094020020B402002078010020B50200207A
:1026640079010020BC0100209C010020CC0D002039
:1026740080B500AF0220FFF797FB00BFFFF7A8FB70
:102684000346022BFAD14FF40040FFF7AFFBFFF7EC
:1026940089FA00BFFFF796FA0346012BFAD14FF4EB
:1026A4008033A82208214FF48000FFF737FB4FF056
:1026B400E063A82208214FF48000FFF755FBFFF7E1
:1026C40009FB00BFFFF716FB0346012BFAD10020DC
:1026D400FFF7AEFA4FF48050FFF7BEFA0020FFF781
:1026E400CFFA0220FFF782FA00BFFFF793FA0346FE
:1026F400082BFAD1074806F04FF80F2000F0D4FD5C
:102704000346002B01D000F007F80020FFF7CCFAB5
:1027140000BF80BD00BD010580B400AF72B600BF2C
:10272400FEE7000080B483B000AF00237B60104B51
:102734005B6C0F4A43F4804353640D4B5B6C03F4AE
:1027440080437B607B6800233B60094B1B6C084A19
:1027540043F080531364064B1B6C03F080533B60BF
:102764003B6800BF0C37BD465DF8047B704700BF73
:102774000038024080B483B000AF7860074B5A69D8
:102784007B6813407A689A420CBF01230023DBB2B2
:1027940018460C37BD465DF8047B7047003C014089
:1027A40080B483B000AF7860044A7B68536100BF93
:1027B4000C37BD465DF8047B704700BF003C014008
:1027C40080B483B000AF78607B681B6803F00103BA
:1027D400012B0CBF01230023DBB218460C37BD4686
:1027E4005DF8047B704780B483B000AF78607B6889
:1027F4001B6803F00203022B0CBF01230023DBB28E
:1028040018460C37BD465DF8047B704780B483B02E
:1028140000AF78607B681B6803F00803082B0CBFCB
:1028240001230023DBB218460C37BD465DF8047B58
:10283400704780B483B000AF78607B681B6803F096
:102844002003202B0CBF01230023DBB218460C37D6
:10285400BD465DF8047B704780B485B000AF7860F6
:102864007B681B68FB60FB687B685B68FB60FB68DC
:1028740000BF1437BD465DF8047B704780B485B053
:1028840000AF78607B681B68FB60FB687B685B68F3
:10289400FB60FB6800BF1437BD465DF8047B7047DE
:1028A40080B485B000AF78607B681B68FB60FB6810
:1028B4007B685B68FB60FB6800BF1437BD465DF84E
:1028C400047B704780B483B000AF78607B68DB68BA
:1028D40003F02003202B0CBF01230023DBB2184696
:1028E4000C37BD465DF8047B704780B483B000AFFD
:1028F40078607B685B68DBB218460C37BD465DF8D0
:10290400047B704780B400AFFEE780B400AFFEE7FD
:1029140080B400AFFEE780B400AFFEE780B400AF40
:10292400FEE780B400AF00BFBD465DF8047B70478E
:1029340080B400AF00BFBD465DF8047B704780B42F
:1029440000AF00BFBD465DF8047B704780B500AFA3
:1029540000F0DAFC00BF80BD80B500AF4FF480709A
:10296400FFF708FF0346002B0ED04FF48070FFF7EB
:1029740017FF064B1B78002B03D1044B01221A705E
:1029840002E0024B00221A7000BF80BD78010020D3
:1029940080B400AF00BFBD465DF8047B704780B4CF
:1029A40000AF00BFBD465DF8047B704780B500AF43
:1029B4004FF40040FFF7DEFE0346002B10D04FF427
:1029C4000040FFF7EDFE074B1B780133DAB2054BED
:1029D4001A70044B1B78022B02D9024B00221A7086
:1029E40000BF80BD7901002080B500AF024801F02E
:1029F400D9FF00BF80BD00BF0C20002098B500AFF8
:102A04001C48FFF716FF0346002B15D01948FFF7A3
:102A140059FF0346002B0FD0174B1B881C46154843
:102A2400FFF763FF03461A46144B1A55124B1B88D3
:102A340001339AB2104B1A800E48FFF7E7FE0346A3
:102A4400002B02D00B48FFF72BFF0A48FFF7CBFE01
:102A54000346002B02D00748FFF710FF0548FFF795
:102A6400AFFE0346002B02D00248FFF7F5FE00BF7D
:102A740098BD00BF001401406C010020E006002056
:102A840080B400AF064BD3F88830054A43F4700392
:102A9400C2F8883000BFBD465DF8047B704700BFB4
:102AA40000ED00E080B400AF044BDB681B0A03F0C8
:102AB40007031846BD465DF8047B704700ED00E04F
:102AC40080B483B000AF0346FB7197F90730002B45
:102AD4000BDBFB7903F01F02074997F907305B0909
:102AE400012000FA02F241F8232000BF0C37BD4652
:102AF4005DF8047B704700BF00E100E080B483B060
:102B040000AF03463960FB7197F90730002B0ADBED
:102B14003B68DAB20C4997F907301201D2B20B4480
:102B240083F800230AE03B68DAB20849FB7903F032
:102B34000F03043B1201D2B20B441A7600BF0C37C8
:102B4400BD465DF8047B704700E100E000ED00E065
:102B540080B489B000AFF860B9607A60FB6803F0B4
:102B64000703FB61FB69C3F10703042B28BF04239C
:102B7400BB61FB690433062B02D9FB69033B00E00C
:102B840000237B614FF0FF32BB6902FA03F3DA439F
:102B9400BB681A407B699A404FF0FF317B6901FAA8
:102BA40003F3D9437B680B40134318462437BD46CF
:102BB4005DF8047B7047000080B485B000AF786096
:102BC400084B1A6B07497B6813430B63054B1A6B5D
:102BD4007B681340FB60FB6800BF1437BD465DF89B
:102BE400047B70470038024080B485B000AF786041
:102BF400084B1A6C07497B6813430B64054B1A6C2A
:102C04007B681340FB60FB6800BF1437BD465DF86A
:102C1400047B70470038024080B483B000AF786012
:102C24007B681B6823F080027B681A6000BF0C3746
:102C3400BD465DF8047B704780B485B000AF786012
:102C440039603B68012B1CD03B68042B17D03B68D0
:102C5400102B12D03B68402B0DD03B68B3F5807F1E
:102C640007D03B68B3F5806F01D105230AE0062342
:102C740008E0042306E0032304E0022302E0012326
:102C840000E00023FB737B6818331946FB7B0B4A77
:102C9400D35C0B44BB60BB681A68FB7B0849CB5C04
:102CA400194604238B40DB431A40BB681A6000BFFB
:102CB4001437BD465DF8047B704700BFBCB2000802
:102CC400C4B2000880B485B000AF786039603B6856
:102CD400012B1CD03B68042B17D03B68102B12D05F
:102CE4003B68402B0DD03B68B3F5807F07D03B6831
:102CF400B3F5806F01D105230AE0062308E004231D
:102D040006E0032304E0022302E0012300E00023A1
:102D1400FB737B6818331946FB7B0A4AD35C0B446C
:102D2400BB60BB681A68FB7B0749CB5C1946082368
:102D34008B401A43BB681A6000BF1437BD465DF868
:102D4400047B7047BCB20008C4B2000880B483B0EE
:102D540000AF786039607B685B6823F070023B6881
:102D64001A437B685A6000BF0C37BD465DF8047B8C
:102D7400704780B483B000AF78607B689B6823F0B1
:102D840080027B689A6000BF0C37BD465DF8047B07
:102D94007047000080B594B000AF07F13C030022F7
:102DA4001A605A609A60DA601A6107F11C032022E3
:102DB4000021184608F01EFA3B1D00221A605A60D2
:102DC4009A60DA601A615A610120FFF70DFFFFF77C
:102DD40069FE0346002200211846FFF7B9FE0346A8
:102DE40019461C20FFF78AFE1C20FFF769FE022308
:102DF400BB8700233B6440F2E7337B640023BB645E
:102E040007F13C0319464FF0804003F03FFB4FF0BD
:102E14008040FFF701FF01214FF08040FFF752FF90
:102E24006023FB6100233B6200237B624FF4FA734F
:102E3400BB620023FB6207F11C031A4601214FF019
:102E4400804003F09DFB01214FF08040FFF7F4FE2A
:102E540000214FF08040FFF779FF4FF08040FFF7EB
:102E640088FF0120FFF7A8FE4FF400437B60022394
:102E7400BB600023FB6000233B6100237B610123D3
:102E8400BB613B1D1946034803F0E4F800BF50370B
:102E9400BD4680BD0000024080B594B000AF07F18C
:102EA4003C0300221A605A609A60DA601A6107F1E2
:102EB4001C0320220021184608F09CF93B1D002227
:102EC4001A605A609A60DA601A615A610220FFF748
:102ED4008BFEFFF7E7FD0346002200211846FFF7AB
:102EE40037FE034619461D20FFF708FE1D20FFF795
:102EF400E7FD0223BB8700233B6440F2E7337B6496
:102F04000023BB6407F13C0319461F4803F0BEFAD3
:102F14001D48FFF781FE01211B48FFF7D3FE602304
:102F2400FB6100233B6200237B624FF4FA73BB62B4
:102F34000023FB6207F11C031A460121124803F027
:102F44001FFB01211048FFF777FE00210E48FFF711
:102F5400FDFE0D48FFF70DFF0220FFF72DFE1023A5
:102F64007B600223BB600023FB6000233B610023E2
:102F74007B610223BB613B1D1946044803F06AF8D8
:102F840000BF5037BD4680BD00040040000402402D
:102F940080B400AF044BDB681B0A03F00703184638
:102FA400BD465DF8047B704700ED00E080B483B05B
:102FB40000AF0346FB7197F90730002B0BDBFB795D
:102FC40003F01F02074997F907305B09012000FA53
:102FD40002F241F8232000BF0C37BD465DF8047BA4
:102FE400704700BF00E100E080B483B000AF034647
:102FF4003960FB7197F90730002B0ADB3B68DAB2C2
:103004000C4997F907301201D2B20B4483F800231C
:103014000AE03B68DAB20849FB7903F00F03043B8A
:103024001201D2B20B441A7600BF0C37BD465DF8CC
:10303400047B704700E100E000ED00E080B489B05B
:1030440000AFF860B9607A60FB6803F00703FB61C6
:10305400FB69C3F10703042B28BF0423BB61FB698D
:103064000433062B02D9FB69033B00E000237B6198
:103074004FF0FF32BB6902FA03F3DA43BB681A402C
:103084007B699A404FF0FF317B6901FA03F3D9431E
:103094007B680B40134318462437BD465DF8047B18
:1030A4007047000080B485B000AF7860084B1A6B9D
:1030B40007497B6813430B63054B1A6B7B6813400A
:1030C400FB60FB6800BF1437BD465DF8047B7047A6
:1030D4000038024080B485B000AF7860084B5A6C69
:1030E40007497B6813434B64054B5A6C7B68134058
:1030F400FB60FB6800BF1437BD465DF8047B704776
:103104000038024080B483B000AF78607B68DB682D
:1031140043F400527B68DA6000BF0C37BD465DF8AB
:10312400047B704780B483B000AF78607B681B6910
:1031340023F490427B681A617B685B6923F02A025E
:103144007B685A6100BF0C37BD465DF8047B70474D
:1031540080B58EB000AF07F11C0300221A605A60DC
:103164009A60DA601A615A619A613B1D00221A6002
:103174005A609A60DA601A615A612020FFF7AAFF48
:103184000420FFF78FFFC0237B600223BB6003236F
:10319400FB6000233B6100237B610823BB613B1D73
:1031A4001946194802F056FFFFF7F2FE03460022C3
:1031B40000211846FFF742FF034619464720FFF750
:1031C40013FF4720FFF7F2FE4FF4E133FB610023C6
:1031D4003B6200237B620023BB620C23FB6200235F
:1031E4003B6300237B6307F11C031946074803F084
:1031F400FBFD0648FFF796FF0448FFF783FF00BF77
:103204003837BD4680BD00BF0008024000140140AD
:10321400DFF834D00D480E490E4A002302E0D4589A
:10322400C4500433C4188C42F9D30B4A0B4C00230A
:1032340001E013600432A242FBD3FFF721FC07F044
:10324400A7FFFEF779FE70470080012000000020F0
:1032540000010020DCB20008000100203827002013
:10326400FEE7000080B500AF0E4B1B680D4A43F427
:10327400007313600B4B1B680A4A43F480631360AA
:10328400084B1B68074A43F480731360032000F063
:1032940031FD0F2000F008F8FFF744FA0023184628
:1032A40080BD00BF003C024080B582B000AF7860B2
:1032B400124B1A68124B1B7819464FF47A73B3FBFE
:1032C400F1F3B2FBF3F3184600F049FD0346002B7B
:1032D40001D001230EE07B680F2B0AD80022796805
:1032E4004FF0FF3000F011FD064A7B6813600023A5
:1032F40000E0012318460837BD4680BD04000020C5
:103304000C0000200800002080B400AF064B1B789E
:103314001A46064B1B681344044A136000BFBD469B
:103324005DF8047B704700BF0C000020C80A002031
:1033340080B400AF034B1B681846BD465DF8047BA0
:10334400704700BFC80A002080B584B000AF786021
:10335400FFF7EEFFB8607B68FB60FB68B3F1FF3FEB
:1033640005D00A4B1B781A46FB681344FB6000BF68
:10337400FFF7DEFF0246BB68D31AFA689A42F7D811
:1033840000BF00BF1037BD4680BD00BF0C00002049
:1033940080B584B000AF78600023FB737B68002B9A
:1033A40001D1012333E07B681B6C002B09D17868C1
:1033B400FDF7B8F97B6800225A647B68002283F821
:1033C4003C207B681B6C03F01003002B18D17B6836
:1033D4001B6C23F4885323F0020343F002027B683E
:1033E4001A64786800F0BAFA7B6800225A647B6831
:1033F4001B6C23F0030343F001027B681A6401E0B1
:103404000123FB737B68002283F83C20FB7B184676
:103414001037BD4680BD000080B485B000AF786031
:103424000023BB607B6893F83C30012B01D102235D
:1034340097E07B68012283F83C207B681B689B68CB
:1034440003F00103012B18D07B681B689A687B6822
:103454001B6842F001029A60454B1B68454AA2FB77
:1034640003239A0C13465B001344BB6002E0BB6861
:10347400013BBB60BB68002BF9D17B681B689B6870
:1034840003F00103012B5FD17B681B6C23F4E06321
:1034940023F0010343F480727B681A647B681B6821
:1034A4005B6803F48063002B07D07B681B6C23F4F8
:1034B400405343F480527B681A647B681B6C03F4AA
:1034C4008053B3F5805F06D17B685B6C23F0060202
:1034D4007B685A6402E07B6800225A647B6800229D
:1034E40083F83C20244BFB607B681B686FF022024E
:1034F4001A60FB685B6803F01F03002B0FD17B6825
:103504001B689B6803F04053002B29D17B681B6820
:103514009A687B681B6842F080429A6020E07B686E
:103524001B68164A93421BD17B681B689B6803F097
:103534004053002B14D17B681B689A687B681B6816
:1035440042F080429A600BE07B681B6C43F01002EF
:103554007B681A647B685B6C43F001027B685A6485
:10356400002318461437BD465DF8047B704700BF3E
:103574000400002083DE1B4300230140002001409F
:1035840080B483B000AF78607B6893F83C30012B43
:1035940001D1022321E07B68012283F83C207B686F
:1035A4001B689A687B681B6822F001029A607B683A
:1035B4001B689B6803F00103002B09D17B681B6C1B
:1035C40023F4885323F0010343F001027B681A6457
:1035D4007B68002283F83C20002318460C37BD4644
:1035E4005DF8047B704780B584B000AF78603960C3
:1035F4000023FB607B681B689B6803F48063B3F55E
:10360400806F13D17B681B689B6803F48073B3F5E8
:10361400807F0BD17B681B6C43F020027B681A64AB
:103624007B68002283F83C20012363E0FFF780FEDF
:10363400F86021E03B68B3F1FF3F1DD03B68002BED
:1036440007D0FFF775FE0246FB68D31A3A689A4220
:1036540012D27B681B681B6803F00203022B0BD099
:103664007B681B6C43F004027B681A647B6800224D
:1036740083F83C2003233DE07B681B681B6803F050
:103684000203022BD6D17B681B686FF012021A600A
:103694007B681B6C43F400727B681A647B681B684C
:1036A4009B6803F04053002B23D17B681B7E002BC7
:1036B4001FD17B681B68DB6A03F47003002B06D000
:1036C4007B681B689B6803F48063002B11D17B68C3
:1036D4001B6C23F480727B681A647B681B6C03F494
:1036E4008053002B05D17B681B6C43F001027B687F
:1036F4001A64002318461037BD4680BD80B483B0D9
:1037040000AF78607B681B68DB6C18460C37BD46DD
:103714005DF8047B7047000080B485B000AF78602A
:1037240039600023BB607B6893F83C30012B01D1E6
:10373400022305E17B68012283F83C203B681B6877
:10374400092B25D97B681B68D9683B681B689BB229
:103754001A4613465B0013441E3B072202FA03F386
:10376400DA437B681B680A40DA607B681B68D968A7
:103774003B689A683B681B689BB2184603465B002B
:1037840003441E3B9A407B681B680A43DA6022E0CC
:103794007B681B6819693B681B689BB21A46134611
:1037A4005B001344072202FA03F3DA437B681B68C5
:1037B4000A401A617B681B6819693B689A683B6810
:1037C4001B689BB2184603465B0003449A407B681F
:1037D4001B680A431A613B685B68062B24D87B6824
:1037E4001B68596B3B685A6813469B001344053B9E
:1037F4001F2202FA03F3DA437B681B680A405A6308
:103804007B681B68596B3B681B689BB218463B6816
:103814005A6813469B001344053B00FA03F27B6885
:103824001B680A435A634CE03B685B680C2B24D842
:103834007B681B68196B3B685A6813469B001344EA
:10384400233B1F2202FA03F3DA437B681B680A4016
:103854001A637B681B68196B3B681B689BB218462C
:103864003B685A6813469B001344233B00FA03F257
:103874007B681B680A431A6323E07B681B68D96A68
:103884003B685A6813469B001344413B1F2202FACB
:1038940003F3DA437B681B680A40DA627B681B68BF
:1038A400D96A3B681B689BB218463B685A68134642
:1038B4009B001344413B00FA03F27B681B680A43F4
:1038C400DA62224BFB607B681B68214A934209D170
:1038D4003B681B68122B05D1FB685B6843F48002CC
:1038E400FB685A607B681B68194A934223D13B6882
:1038F4001B68102B03D03B681B68112B1BD1FB6882
:103904005B6843F40002FB685A603B681B68102B39
:1039140011D1104B1B68104AA2FB03239A0C1346C7
:103924009B0013445B00BB6002E0BB68013BBB60CF
:10393400BB68002BF9D17B68002283F83C2000236C
:1039440018461437BD465DF8047B704700230140D8
:10395400002001400400002083DE1B4380B485B0B6
:1039640000AF7860794BFB60FB685B6823F44032FE
:10397400FB685A60FB685A687B685B681A43FB689B
:103984005A607B681B685A687B681B6822F48072E3
:103994005A607B681B6859687B681B691A027B68DC
:1039A4001B680A435A607B681B685A687B681B68FB
:1039B40022F040725A607B681B6859687B689A6879
:1039C4007B681B680A435A607B681B689A687B683B
:1039D4001B6822F400629A607B681B6899687B68A4
:1039E400DA687B681B680A439A607B689B6A584A5A
:1039F400934222D07B681B689A687B681B6822F01C
:103A040070629A607B681B6899687B689A6A7B68B5
:103A14001B680A439A607B681B689A687B681B680A
:103A240022F040529A607B681B6899687B68DA6A66
:103A34007B681B680A439A600FE07B681B689A687E
:103A44007B681B6822F070629A607B681B689A68C6
:103A54007B681B6822F040529A607B681B689A68F6
:103A64007B681B6822F002029A607B681B68996875
:103A74007B681B7E5A007B681B680A439A607B68DC
:103A840093F82030002B1BD07B681B685A687B6836
:103A94001B6842F400625A607B681B685A687B6842
:103AA4001B6822F460425A607B681B6859687B6813
:103AB4005B6A013B5A037B681B680A435A6007E050
:103AC4007B681B685A687B681B6822F400625A6032
:103AD4007B681B68DA6A7B681B6822F47002DA620E
:103AE4007B681B68D96A7B68DB69013B1A057B68C4
:103AF4001B680A43DA627B681B689A687B681B68E8
:103B040022F400729A607B681B6899687B6893F85A
:103B140030305A027B681B680A439A607B681B68D2
:103B24009A687B681B6822F480629A607B681B68D1
:103B340099687B685B699A027B681B680A439A6090
:103B440000BF1437BD465DF8047B70470023014075
:103B54000100000F80B485B000AF78607B6803F08B
:103B64000703FB600C4BDB68BB60BA684FF6FF03CE
:103B74001340BB60FB681A02BB68134343F0BF6386
:103B840043F40033BB60044ABB68D36000BF1437FE
:103B9400BD465DF8047B704700ED00E080B400AFE3
:103BA400044BDB681B0A03F007031846BD465DF8A7
:103BB400047B704700ED00E080B483B000AF03469F
:103BC400FB7197F90730002B0BDBFB7903F01F0225
:103BD400074997F907305B09012000FA02F241F81E
:103BE400232000BF0C37BD465DF8047B704700BF3F
:103BF40000E100E080B483B000AF03463960FB719C
:103C040097F90730002B0ADB3B68DAB20C4997F9C5
:103C140007301201D2B20B4483F800230AE03B6858
:103C2400DAB20849FB7903F00F03043B1201D2B264
:103C34000B441A7600BF0C37BD465DF8047B704711
:103C440000E100E000ED00E080B489B000AFF8606E
:103C5400B9607A60FB6803F00703FB61FB69C3F199
:103C64000703042B28BF0423BB61FB690433062B21
:103C740002D9FB69033B00E000237B614FF0FF3274
:103C8400BB6902FA03F3DA43BB681A407B699A40C2
:103C94004FF0FF317B6901FA03F3D9437B680B4092
:103CA400134318462437BD465DF8047B7047000073
:103CB40080B582B000AF78607B68013BB3F1807F50
:103CC40001D301230FE00A4A7B68013B53600F21B3
:103CD4004FF0FF30FFF78EFF054B00229A60044B34
:103CE40007221A60002318460837BD4680BD00BF6E
:103CF40010E000E080B582B000AF78607868FFF72C
:103D040029FF00BF0837BD4680BD80B586B000AF2F
:103D14000346B9607A60FB7300237B61FFF73EFFC3
:103D240078617A68B9687869FFF78EFF024697F977
:103D34000F3011461846FFF75DFF00BF1837BD4628
:103D440080BD80B582B000AF0346FB7197F90730A0
:103D54001846FFF731FF00BF0837BD4680BD80B568
:103D640082B000AF78607868FFF7A2FF0346184678
:103D74000837BD4680BD80B582B000AF78607B68EF
:103D8400002B01D101230EE07B685B79DBB2002BB1
:103D940005D17B6800221A717868FDF7A5FC7B6861
:103DA40001225A71002318460837BD4680BD80B4ED
:103DB40087B000AFF860B9607A6000233B61FB68AC
:103DC40002225A71FB681B689A68FB681B6842F000
:103DD40001029A6000237B610AE07B699B00BA6858
:103DE4001A44FB681B6812681A607B6901337B61A3
:103DF4007A697B689A42F0D3FB681B681B683B6155
:103E0400FB6801225A713B6918461C37BD465DF8B0
:103E1400047B704780B586B000AFF860B960C7E92D
:103E240000230123FB75234B1B7E012B01D10223AD
:103E34003BE0204B01221A764CF2503000F07CF823
:103E44000346FB75FB7D002B2BD1FB68002B05D1B2
:103E54003B781946B86800F027F916E0FB68012B97
:103E640005D13B881946B86800F0FAF80DE0FB6804
:103E7400022B05D13B681946B86800F0CFF804E07E
:103E8400D7E90023B86800F097F84CF2503000F0FE
:103E940053F80346FB75084B1B69074A23F00103DB
:103EA4001361044B00221A76FB7D18461837BD4671
:103EB40080BD00BFCC0A0020003C024080B483B027
:103EC40000AF0023FB710B4B1B69002B0BDA094B72
:103ED400094A5A60074B094A5A60064B1B69002B72
:103EE40001DA0123FB71FB7918460C37BD465DF8F6
:103EF400047B7047003C024023016745AB89EFCD4A
:103F040080B400AF054B1B69044A43F000431361BE
:103F140000231846BD465DF8047B7047003C024010
:103F240080B400AF034BDB691846BD465DF8047BE3
:103F3400704700BFCC0A002080B584B000AF786021
:103F44000023FB601A4B0022DA61FFF7F1F9F860F5
:103F540010E07B68B3F1FF3F0CD07B68002B07D0E7
:103F6400FFF7E6F90246FB68D31A7A689A4201D24F
:103F7400032319E00F4BDB6803F48033002BE8D1F3
:103F84000C4BDB6803F00103002B02D0094B012228
:103F9400DA60084BDB6803F4F973002B03D000F0FC
:103FA400A5F8012300E0002318461037BD4680BD64
:103FB400CC0A0020003C024080B485B000AFF86019
:103FC400C7E90023144B1B69134A23F4407313619C
:103FD400114B1B69104A43F4407313610E4B1B6968
:103FE4000D4A43F001031361FB683A681A60BFF39A
:103FF4006F8F00BFD7E900014FF000024FF00003BC
:104004000A000023F968043113460B6000BF14371B
:10401400BD465DF8047B7047003C024080B483B029
:1040240000AF786039600D4B1B690C4A23F4407370
:1040340013610A4B1B69094A43F400731361074B6C
:104044001B69064A43F0010313617B683A681A60EE
:1040540000BF0C37BD465DF8047B7047003C02404E
:1040640080B483B000AF78600B467B800D4B1B6936
:104074000C4A23F4407313610A4B1B69094A43F445
:1040840080731361074B1B69064A43F001031361F4
:104094007B687A881A8000BF0C37BD465DF8047BC4
:1040A400704700BF003C024080B483B000AF78602A
:1040B4000B46FB700C4B1B690B4A23F440731361D2
:1040C400094B094A1B691361074B1B69064A43F0F4
:1040D400010313617B68FA781A7000BF0C37BD4680
:1040E4005DF8047B704700BF003C024080B400AF21
:1040F4002F4BDB6803F01003002B08D02D4BDB693A
:1041040043F010032B4AD361294B1022DA60284B69
:10411400DB6803F02003002B08D0264BDB6943F057
:104124000803244AD361224B2022DA60204BDB6847
:1041340003F04003002B08D01E4BDB6943F004035B
:104144001C4AD3611A4B4022DA60194BDB6803F036
:104154008003002B08D0174BDB6943F00203154A98
:10416400D361134B8022DA60114BDB6803F4807354
:10417400002B09D00F4BDB6943F001030D4AD361D7
:104184000B4B4FF48072DA60094BDB6803F00203D7
:10419400002B08D0074BDB6943F02003054AD361A9
:1041A400034B0222DA6000BFBD465DF8047B704712
:1041B400003C0240CC0A002080B584B000AF786097
:1041C40039600123FB730023BB60314B1B7E012B41
:1041D40001D1022358E02E4B01221A764CF25030C2
:1041E400FFF7AAFE0346FB73FB7B002B48D13B6819
:1041F4004FF0FF321A607B681B68012B15D17B6876
:104204001B69DAB27B685B681946104600F044F813
:104214004CF25030FFF790FE0346FB731D4B1B69B5
:104224001C4A23F00403136128E07B689B68BB608D
:104234001CE07B681B69DBB21946B86800F050F8D3
:104244004CF25030FFF778FE0346FB73114B1B69A9
:10425400104A23F0FA031361FB7B002B03D03B6865
:10426400BA681A600AE0BB680133BB607B68DA682D
:104274007B689B681344BA689A42DAD300F078F8F2
:10428400034B00221A76FB7B18461037BD4680BDCF
:10429400CC0A0020003C024080B483B000AF034647
:1042A4003960FB710D4B1B690C4A23F44073136195
:1042B4000A4B1B69094A43F004031361074B1A694B
:1042C400FB791B021343054A43F48033136100BF97
:1042D4000C37BD465DF8047B704700BF003C0240CC
:1042E40080B485B000AF78600B46FB700023FB60A0
:1042F400FB78002B02D10023FB6010E0FB78012B3C
:1043040003D14FF48073FB6009E0FB78022B03D1E7
:104314004FF40073FB6002E04FF44073FB60134BF7
:104324001B69124A23F440731361104B1A690F4935
:10433400FB6813430B610D4B1B690C4A23F0F80314
:1043440013610A4B1A697B68DB001343074A43F085
:1043540002031361054B1B69044A43F48033136160
:1043640000BF1437BD465DF8047B7047003C024033
:1043740080B400AF204B1B6803F40073002B17D0EC
:104384001D4B1B681C4A23F4007313601A4B1B68F3
:10439400194A43F400631360174B1B68164A23F44D
:1043A40000631360144B1B68134A43F400731360D7
:1043B400114B1B6803F48063002B17D00E4B1B6852
:1043C4000D4A23F4806313600B4B1B680A4A43F4C1
:1043D40080531360084B1B68074A23F4805313600F
:1043E400054B1B68044A43F48063136000BFBD4659
:1043F4005DF8047B704700BF003C024080B489B084
:1044040000AF7860396000237B6100233B610023A7
:10441400BB610023FB6159E10122FB6902FA03F34A
:104424007B613B681B687A6913403B613A697B692D
:104434009A4240F048813B685B6803F00303012B18
:1044440005D03B685B6803F00303022B30D17B6823
:104454009B68BB61FB695B00032202FA03F3DB4345
:10446400BA691340BB613B68DA68FB695B0002FA16
:1044740003F3BA691343BB617B68BA699A607B68CA
:104484005B68BB610122FB6902FA03F3DB43BA698F
:104494001340BB613B685B681B0903F00102FB69C5
:1044A40002FA03F3BA691343BB617B68BA695A60C1
:1044B4003B685B6803F00303032B17D07B68DB685E
:1044C400BB61FB695B00032202FA03F3DB43BA69B5
:1044D4001340BB613B689A68FB695B0002FA03F313
:1044E400BA691343BB617B68BA69DA603B685B688D
:1044F40003F00303022B23D1FB69DA087B6808323B
:1045040053F82230BB61FB6903F007039B000F22C1
:1045140002FA03F3DB43BA691340BB613B681A69CF
:10452400FB6903F007039B0002FA03F3BA69134320
:10453400BB61FB69DA087B680832B96943F8221069
:104544007B681B68BB61FB695B00032202FA03F30F
:10455400DB43BA691340BB613B685B6803F0030249
:10456400FB695B0002FA03F3BA691343BB617B681E
:10457400BA691A603B685B6803F44033002B00F0AF
:10458400A2800023FB60574B5B6C564A43F4804384
:104594005364544B5B6C03F48043FB60FB68524AE6
:1045A400FB699B08023352F82330BB61FB6903F0BB
:1045B40003039B000F2202FA03F3DB43BA6913409F
:1045C400BB617B68494A934219D07B68484A93424D
:1045D40013D07B68474A93420DD07B68464A934286
:1045E40007D07B68454A934201D1042308E007239E
:1045F40006E0032304E0022302E0012300E0002399
:10460400FA6902F0030292009340BA691343BB6152
:104614003549FB699B080233BA6941F82320384BBA
:104624009B68BB613B69DB43BA691340BB613B6870
:104634005B6803F48013002B03D0BA693B6913430E
:10464400BB612F4ABB6993602D4BDB68BB613B693F
:10465400DB43BA691340BB613B685B6803F4001336
:10466400002B03D0BA693B691343BB61244ABB697D
:10467400D360234B5B68BB613B69DB43BA6913407E
:10468400BB613B685B6803F40033002B03D0BA6959
:104694003B691343BB611A4ABB695360184B1B68DF
:1046A400BB613B69DB43BA691340BB613B685B6830
:1046B40003F48033002B03D0BA693B691343BB6115
:1046C4000F4ABB691360FB690133FB61FB690F2B64
:1046D4007FF6A2AE00BF00BF2437BD465DF8047B61
:1046E400704700BF0038024000380140000002401B
:1046F4000004024000080240000C02400010024086
:10470400003C0140F0B58FB00AAF78607B68002BA5
:1047140001D101230FE17B681B68BB607B6893F8C0
:10472400BD34DBB2002B06D17B68002283F8BC24A5
:10473400786806F019FA7B68032283F8BD24BB6805
:10474400DB6B03F48073002B02D17B6800221A61B7
:104754007B681B68184602F0C0FC7B681B683B60E2
:104764007E686D4606F110040FCC0FC50FCC0FC543
:1047740094E8030085E80300331D0ECB386802F08B
:1047840097FB0346002B05D07B68022283F8BD24E7
:104794000123D0E07B681B680021184602F0AEFCC0
:1047A4000023FB734AE0FA7B79681346DB00134469
:1047B4009B000B443D3301221A70FA7B796813463F
:1047C400DB0013449B000B443C33FA7B1A70FA7BE6
:1047D400FB7B98B279681346DB0013449B000B44BF
:1047E400443302461A80FA7B79681346DB0013448B
:1047F4009B000B44403300221A70FA7B79681346FD
:10480400DB0013449B000B44483300221A60FA7BFC
:1048140079681346DB0013449B000B444C3300229D
:104824001A60FA7B79681346DB0013449B000B443F
:10483400543300221A60FB7B0133FB73FA7B7B68E1
:104844005B689A42AFD30023FB7344E0FA7B796838
:104854001346DB0013449B000B4403F27D23002228
:104864001A70FA7B79681346DB0013449B000B44EF
:1048740003F51F73FA7B1A70FA7B79681346DB0021
:1048840013449B000B4403F5207300221A70FA7B37
:1048940079681346DB0013449B000B4403F5227331
:1048A40000221A60FA7B79681346DB0013449B00EC
:1048B4000B4403F5237300221A60FA7B79681346CC
:1048C400DB0013449B000B4403F5257300221A609C
:1048D400FB7B0133FB73FA7B7B685B689A42B5D33D
:1048E4007B681B683B607E686D4606F110040FCC44
:1048F4000FC50FCC0FC594E8030085E80300331DF2
:104904000ECB386802F046FC0346002B05D07B68CA
:10491400022283F8BD2401230DE07B68002283F882
:1049240038207B68012283F8BD247B681B68184605
:1049340003F095FD002318461437BD46F0BD80B53D
:1049440084B000AF78607B681B68FB607B6893F879
:10495400BC34012B01D1022320E07B68012283F8BF
:10496400BC247B689B6A012B09D17B689B69012B62
:1049740005D0FB689B6B43F48032FB689A637B68C9
:104984001B68184602F098FB7B681B68184603F006
:1049940045FD7B68002283F8BC24002318461037A9
:1049A400BD4680BD90B58DB000AF78607B681B6854
:1049B4003B623B6AFB617B681B68184603F003FE9D
:1049C4000346002B40F08A847B681B68184603F07A
:1049D40067FD0346002B00F08084FB6903F5006348
:1049E4009B681B0AC3F30D027B68C3F8FC247B6835
:1049F4001B68184603F054FD034603F00203022B20
:104A040007D17B681B685A697B681B6802F0020245
:104A14005A617B681B68184603F042FD034603F0A5
:104A24001003102B61D17B681B689A697B681B6833
:104A340022F010029A613B6A1B6ABB61BB6903F0F6
:104A44000F021346DB0013449B0003F51E737A68C0
:104A5400134404337B61BB695B0C03F00F03022B2B
:104A640024D1BA6947F6F0731340002B35D07B6923
:104A74001969BB691B099BB2C3F30A039BB21A46AB
:104A8400386A03F079FB7B691A69BB691B09C3F3B4
:104A94000A031A447B691A617B691A6ABB691B0998
:104AA400C3F30A031A447B691A6216E0BB695B0C00
:104AB40003F00F03062B10D17B6803F2C4430822D2
:104AC4001946386A03F058FB7B691A6ABB691B09EB
:104AD400C3F30A031A447B691A627B681B689A69E8
:104AE4007B681B6842F010029A617B681B68184659
:104AF40003F0D6FC034603F40023B3F5002F40F083
:104B0400A78000237B627B681B68184603F0DBFCEC
:104B1400B86299E0BB6A03F00103002B00F08E80B9
:104B24007B681B687A6AD2B21146184603F0FFFC10
:104B340038613B6903F00103002B0CD07B6A5A01F6
:104B4400FB69134403F530631A4601239360796AC1
:104B5400786800F0C3FE3B6903F00803002B0CD017
:104B64007B6A5A01FB69134403F530631A46082330
:104B74009360796A786800F099FF3B6903F0100349
:104B8400002B08D07B6A5A01FB69134403F5306398
:104B94001A46102393603B6903F00203002B30D0C4
:104BA4003B6A5B6903F08003802B09D1FB6903F541
:104BB40000635B68FA6902F5006243F48063536042
:104BC4007A6A1346DB0013449B0003F51E737A686C
:104BD400134404337B617B69DB78012B08D17B6947
:104BE4000022DA707B6ADBB21946786806F0C2F8F4
:104BF4007B6A5A01FB69134403F530631A460223A6
:104C040093603B6903F02003002B08D07B6A5A01B0
:104C1400FB69134403F530631A46202393603B6910
:104C240003F40053002B09D07B6A5A01FB69134437
:104C340003F530631A464FF4005393607B6A0133E3
:104C44007B62BB6A5B08BB62BB6A002B7FF462AF0A
:104C54007B681B68184603F023FC034603F4802397
:104C6400B3F5802F40F0DB807B681B68184603F0A7
:104C740044FCB86200237B62CDE0BB6A03F001030D
:104C8400002B00F0C2807B681B687A6AD2B211469E
:104C9400184603F06AFC38613B6903F00103002BFA
:104CA40057D07B6A03F00F03012202FA03F3FB607F
:104CB400FB6903F500635A6BFB68DB43F96901F593
:104CC400006113404B637B6A5A01FB69134403F58B
:104CD40010631A46012393607B681B69012B32D150
:104CE40079687A6A1346DB0013449B000B444C3307
:104CF400196878687A6A1346DB0013449B000344FE
:104D040048331B68194478687A6A1346DB001344F5
:104D14009B0003444C3319607B6A002B13D17968E0
:104D24007A6A1346DB0013449B000B4454331B681C
:104D3400002B08D17B6818687B6803F2C4431A46C9
:104D4400012103F071FC7B6ADBB21946786805F037
:104D54008CFF3B6903F00803002B08D07B6A5A01DF
:104D6400FB69134403F510631A46082393603B69F7
:104D740003F01003002B08D07B6A5A01FB6913442B
:104D840003F510631A46102393603B6903F0400354
:104D9400002B08D07B6A5A01FB69134403F51063A6
:104DA4001A46402393603B6903F00203002B23D08F
:104DB400796A386A02F052FB7A6A1346DB001344BC
:104DC4009B0038337A68134404337B617B69DB7856
:104DD400012B08D17B690022DA707B6ADBB21946A9
:104DE400786805F0D9FF7B6A5A01FB69134403F51F
:104DF40010631A46022393603B6903F08003002B7F
:104E040003D0796A786800F0DBFC7B6A01337B624B
:104E1400BB6A5B08BB62BB6A002B7FF42EAF7B6866
:104E24001B68184603F03CFB034603F00043B3F150
:104E3400004F22D1FB6903F500635B68FA6902F550
:104E4400006223F0010353607B6893F8F434012B70
:104E540008D17B68002283F8F4240021786800F0EC
:104E6400C3FE02E0786805F077FF7B681B685A6927
:104E74007B681B6802F000425A617B681B68184615
:104E840003F00EFB034603F40063B3F5006F12D185
:104E9400FB6903F500639B6803F00103012B02D156
:104EA400786805F033FF7B681B685A697B681B6868
:104EB40002F400625A617B681B68184603F0F0FA3A
:104EC400034603F48053B3F5805F40F0B780FB6979
:104ED40003F500635B68FA6902F5006223F00103DD
:104EE40053607B681B681021184602F0B7FA002350
:104EF400FB6246E0FB6A5A01FB69134403F5106345
:104F04001A464FF67F339360FB6A5A01FB691344D8
:104F140003F510631B68FA6A5101FA690A4402F541
:104F2400106223F400131360FB6A5A01FB691344F3
:104F340003F530631A464FF67F339360FB6A5A01D8
:104F4400FB69134403F530631B68FA6A5101FA697B
:104F54000A4402F5306223F400131360FB6A5A0119
:104F6400FB69134403F530631B68FA6A5101FA695B
:104F74000A4402F5306243F000631360FB6A0133B4
:104F8400FB627B685B68FA6A9A42B3D3FB6903F5F8
:104F94000063DB69FA6902F5006243F00113D3612F
:104FA4007B681B6B002B16D0FB6903F50063D3F8F9
:104FB4008430FA6902F5006243F00B03C2F88430CE
:104FC400FB6903F500635B6CFA6902F5006243F068
:104FD4000B03536415E0FB6903F500635B69FA692D
:104FE40002F5006243F4005343F02B035361FB6961
:104FF40003F500631B69FA6902F5006243F00B03D1
:105004001361FB6903F500631B68FA6902F500622A
:1050140023F4FE6313607B6818687B681B69D9B24C
:105024007B6803F2C4431A4603F0FEFA7B681B68EC
:105034005A697B681B6802F480525A617B681B685A
:10504400184603F02DFA034603F40053B3F5005F4A
:1050540024D17B681B68184603F0C3FA7B681B687D
:10506400184602F078FA03461A467B68DA607B68D1
:105074001C6800F0C5FD01467B68DB68DBB21A469C
:10508400204601F077FF786805F017FE7B681B68FF
:105094005A697B681B6802F400525A617B681B687A
:1050A400184603F0FDF9034603F00803082B0AD160
:1050B400786805F0F4FD7B681B685A697B681B6897
:1050C40002F008025A617B681B68184603F0E8F98D
:1050D400034603F08003802B22D13B6A9B6923F0B3
:1050E40080023B6A9A6101237B6214E079687A6AE0
:1050F4001346DB0013449B000B4403F27F231B780D
:10510400012B05D17B6ADBB21946786800F027FBD6
:105114007B6A01337B627B685B687A6A9A42E5D377
:105124007B681B68184603F0BBF9034603F480133D
:10513400B3F5801F3BD101237B622BE07B6A5A01CC
:10514400FB69134403F510631B68BB6179687A6AD1
:105154001346DB0013449B000B4440331B78012BA4
:1051640015D1BB69002B12DA79687A6A1346DB0021
:1051740013449B000B443F3301221A707B6ADBB259
:1051840063F07F03DBB21946786800F0E8FA7B6AC3
:1051940001337B627B685B687A6A9A42CED37B6810
:1051A4001B685A697B681B6802F480125A617B6829
:1051B4001B68184603F074F9034603F40013B3F5AF
:1051C400001F55D101237B6245E07B6A5A01FB69CC
:1051D400134403F530631B68BB6179687A6A13462C
:1051E400DB0013449B000B4403F520731B78012B55
:1051F4002ED1BB69002B2BDABB6903F480327B68A8
:10520400D3F8FC3403F001039A4221D179687A6A15
:105214001346DB0013449B000B4403F27F2301225B
:105224001A703B6A9B6943F080023B6A9A613B6A4D
:105234005B6903F08003002B0AD1FB6903F500636B
:105244005B68FA6902F5006243F40073536007E097
:105254007B6A01337B627B685B687A6A9A42B4D367
:105264007B681B685A697B681B6802F400125A61E8
:105274007B681B68184603F013F9034603F0804368
:10528400B3F1804F0AD1786805F098FD7B681B68FC
:105294005A697B681B6802F080425A617B681B680C
:1052A400184603F0FDF8034603F00403042B15D15C
:1052B4007B681B685B68BB61BB6903F00403002B5C
:1052C40002D0786805F088FD7B681B6859687B68A4
:1052D4001B68BA690A435A6000E000BF3437BD4610
:1052E40090BD80B582B000AF78600B46FB707B68E0
:1052F40093F8BC34012B01D1022313E07B68012213
:1053040083F8BC247B68FA7883F838207B681B68B0
:10531400FA781146184603F05BF87B68002283F89C
:10532400BC24002318460837BD4680BD80B584B030
:1053340000AF7860084611461A460346FB700B46D8
:105344003B801346BB700023FB7297F90330002B9C
:105354000FDAFB7803F00F021346DB0013449B00C3
:1053640038337A6813440433FB60FB6801225A70B3
:105374000FE0FB7803F00F021346DB0013449B009D
:1053840003F51E737A6813440433FB60FB68002240
:105394005A70FB7803F00F03DAB2FB681A703A888C
:1053A400FB68DA60FB68BA781A71FB685B78002BDB
:1053B40004D0FB681B789AB2FB681A81BB78022B75
:1053C40002D1FB6800225A717B6893F8BC34012B2C
:1053D40001D102230EE07B68012283F8BC247B68A0
:1053E4001B68F968184602F0DBF87B68002283F832
:1053F400BC24FB7A18461037BD4680BD80B584B006
:1054040000AF78600B46FB7097F90330002B0FDA7E
:10541400FB7803F00F021346DB0013449B00383380
:105424007A6813440433FB60FB6801225A700FE06E
:10543400FB7803F00F021346DB0013449B0003F5D3
:105444001E737A6813440433FB60FB6800225A70AD
:10545400FB7803F00F03DAB2FB681A707B6893F8E9
:10546400BC34012B01D102230EE07B68012283F8B6
:10547400BC247B681B68F968184602F019F97B683C
:10548400002283F8BC24002318461037BD4680BD93
:1054940080B586B000AFF8607A603B600B46FB7263
:1054A400FB7A03F00F021346DB0013449B0003F561
:1054B4001E73FA68134404337B617B697A681A614A
:1054C4007B693A689A617B6900221A627B690022CF
:1054D4005A70FB7A03F00F03DAB27B691A70FB6827
:1054E4001B69012B02D17A687B695A61FB7A03F04C
:1054F4000F03002B09D1FB681868FB681B69DBB23A
:105504001A46796902F0F8FB08E0FB681868FB6842
:105514001B69DBB21A46796902F0A6F90023184622
:105524001837BD4680BD80B483B000AF78600B46A9
:10553400FB70FB7803F00F0279681346DB00134419
:105544009B000B4403F527731B6818460C37BD46B4
:105554005DF8047B704780B586B000AFF8607A6070
:105564003B600B46FB72FB7A03F00F021346DB0031
:1055740013449B003833FA68134404337B617B691A
:105584007A681A617B693A689A617B6900221A62B7
:105594007B6901225A70FB7A03F00F03DAB27B694C
:1055A4001A70FB681B69012B02D17A687B695A6106
:1055B400FB7A03F00F03002B09D1FB681868FB6822
:1055C4001B69DBB21A46796902F096FB08E0FB68B6
:1055D4001868FB681B69DBB21A46796902F044F962
:1055E400002318461837BD4680BD80B584B000AF8F
:1055F40078600B46FB70FB7803F00F027B685B68F6
:105604009A4201D9012350E097F90330002B0FDAB5
:10561400FB7803F00F021346DB0013449B0038337E
:105624007A6813440433FB60FB6801225A700DE06E
:10563400FA781346DB0013449B0003F51E737A6863
:1056440013440433FB60FB6800225A70FB68012298
:105654009A70FB7803F00F03DAB2FB681A707B6868
:1056640093F8BC34012B01D102231EE07B68012294
:1056740083F8BC247B681B68F968184602F0D4FDE3
:10568400FB7803F00F03002B0AD17B6818687B6852
:105694001B69D9B27B6803F2C4431A4602F0C4FF03
:1056A4007B68002283F8BC24002318461037BD46CB
:1056B40080BD80B584B000AF78600B46FB70FB788A
:1056C40003F00F027B685B689A4201D9012342E030
:1056D40097F90330002B0FDAFB7803F00F0213461F
:1056E400DB0013449B0038337A6813440433FB60B3
:1056F400FB6801225A700FE0FB7803F00F02134697
:10570400DB0013449B0003F51E737A6813440433CF
:10571400FB60FB6800225A70FB6800229A70FB78D9
:1057240003F00F03DAB2FB681A707B6893F8BC3499
:10573400012B01D102230EE07B68012283F8BC24F3
:105744007B681B68F968184602F0DCFD7B68002260
:1057540083F8BC24002318461037BD4680BD80B5AD
:1057640084B000AF78600B46FB7097F90330002BD0
:105774000CDAFB7803F00F021346DB0013449B00A2
:1057840038337A6813440433FB600CE0FB7803F08D
:105794000F021346DB0013449B0003F51E737A6863
:1057A40013440433FB607B681B68F968184602F0F5
:1057B400FBFB0346FB72FB7A18461037BD4680BDDF
:1057C40080B58AB002AF786039607B681B687B6102
:1057D4007B693B613A681346DB0013449B00383312
:1057E4007A6813440433FB60FB681A6AFB689B699C
:1057F4009A4201D901236CE0FB689A69FB681B6A31
:10580400D31AFB61FB68DB68FA699A4202D9FB6828
:10581400DB68FB61FB6903339B08BB612BE0FB681E
:105824009A69FB681B6AD31AFB61FB68DB68FA6937
:105834009A4202D9FB68DB68FB61FB6903339B086E
:10584400BB61FB6819693B68DAB2FB6998B27B6893
:105854001B69DBB200930346786902F04FFCFB68D6
:105864001A69FB691A44FB681A61FB681A6AFB69C6
:105874001A44FB681A623B685A013B69134403F5F6
:1058840010639B699BB2BA699A4209D8FB681A6A89
:10589400FB689B699A4203D2FB689B69002BBED1CB
:1058A400FB689A69FB681B6A9A4211D83B6803F04B
:1058B4000F03012202FA03F3BB603B6903F50063A3
:1058C4005A6BBB68DB43396901F5006113404B63D4
:1058D400002318462037BD4680BD000080B588B03F
:1058E40000AF786039607B681B68FB61FB69BB6152
:1058F400FB693C3304331B687B613B685A01BB6919
:10590400134403F530639B683B617B681B69012B7F
:105914007BD13B6903F00803002B15D07B69614AF6
:10592400934240F2B9803B6903F40043002B00F03A
:10593400B3803B685A01BB69134403F530631A46CC
:105944004FF400439360A7E03B6903F02003002B6E
:1059540009D03B685A01BB69134403F530631A4606
:105964002023936098E03B6903F02803002B40F068
:1059740093807B694B4A93420FD93B6903F40043FC
:10598400002B0AD03B685A01BB69134403F530630A
:105994001A464FF4004393607EE03A681346DB00F6
:1059A40013449B0003F51E737A6813440433FB60AD
:1059B400FB68DA693B685901BB690B4403F5306342
:1059C4001B69C3F31203D21AFB681A623B68002BEB
:1059D40014D1FB689B69002B09D17B6818687B682C
:1059E40003F2C4431A46012102F01EFE06E0FB68DE
:1059F4001A69FB681B6A1A44FB681A613B68DBB2CC
:105A04001946786805F016F946E07B69264A934200
:105A140024D13B6903F40043002B0AD03B685A01AC
:105A2400BB69134403F530631A464FF40043936093
:105A340032E03B6903F02003002B08D03B685A0195
:105A4400BB69134403F530631A46202393603B6813
:105A5400DBB21946786805F0EDF81DE03B68002BD1
:105A640014D179683A681346DB0013449B000B4455
:105A740003F525731B68002B08D17B6818687B68C5
:105A840003F2C4431A46002102F0CEFD3B68DBB2A8
:105A94001946786805F0CEF8002318462037BD462D
:105AA40080BD00BF0A30544F0A31544F80B586B0D0
:105AB40000AF786039607B681B687B617B693B6100
:105AC4007B693C3304331B68FB603B685A013B69C8
